:020000040800F2
:10000000005000205519000895180008971800089E
:10001000991800089B1800089D18000800000000AF
:100020000000000000000000000000009F18000811
:10003000A118000800000000A3180008A518000877
:100040009D1900089D1900089D1900089D190008B8
:100050009D1900089D190008B1180008BB18000878
:100060009D1900089D1900089D1900089D19000898
:100070009D1900089D1900089D1900089D19000888
:100080009D1900089D1900089D190008C518000851
:10009000D51800089D1900089D190008E9180008E6
:1000A0009D1900089D1900089D1900089D19000858
:1000B0009D1900089D1900089D1900089D19000848
:1000C0009D1900089D1900089D1900089D19000838
:1000D0009D1900089D1900089D1900089D19000828
:1000E000F31800089D1900089D1900080000000081
:1000F0000000000000000000000000000000000000
:0C01000000000000000000005FF808F1A3
:10010C0010B5054C237833B9044B13B10448AFF345
:10011C0000800123237010BD0C00002000000000A3
:10012C00E819000808B5034B1BB103490348AFF3AA
:10013C00008008BD0000000010000020E819000835
:10014C0010B504460E4B18784FF47A73B3FBF0F3EA
:10015C000C4A1068B0FBF3F000F0E8FC68B90F2C07
:10016C0001D901200AE0002221464FF0FF3000F0B7
:10017C009DFC034B5C60002000E0012010BD00BF23
:10018C00000000200800002008B5074A136843F05F
:10019C0010031360032000F077FC0020FFF7D0FF62
:1001AC0001F022FB002008BD00200240034A116828
:1001BC00034B1B780B441360704700BF6C0000208E
:1001CC0000000020014B1868704700BF6C00002035
:1001DC0038B50446FFF7F6FF0546B4F1FF3F02D0F1
:1001EC00044B1B781C44FFF7EDFF401BA042FAD3D5
:1001FC0038BD00BF00000020F0B44B6901229A40CA
:10020C000468D4F8003223F47C534D6A43EA052386
:10021C0043F00103C4F800320568D5F81C42D343FF
:10022C001C40C5F81C42CC69C4B90568D5F80C4211
:10023C001C40C5F80C42CF688D8806684C6945EAAD
:10024C000745483446F834508F680D8804684E6969
:10025C0045EA0745483604EBC6046560CC69012CB9
:10026C001ED08C69002C35D10568D5F804421C4091
:10027C00C5F804420C69002C33D10468D4F814522C
:10028C002B40C4F814320B6A012B31D00268D2F81F
:10029C00003223F00103C2F800320020F0BC70479A
:1002AC000568D5F80C421443C5F80C420F688D88CC
:1002BC0006684C6945EA0745483446F834508F685F
:1002CC008D8904684E6945EA0745483604EBC60437
:1002DC006560C6E70568D5F804421443C5F80442C6
:1002EC00C8E70468D4F814321343C4F81432CAE7CC
:1002FC000168D1F81C321A43C1F81C22C6E7002849
:10030C0000F0968038B5044690F83C3003B30223D5
:10031C0084F83C302268136823F0020313602268CF
:10032C00136843F001031360FFF74CFF0546236885
:10033C005A6812F0010F10D1FFF744FF401B0A2836
:10034C00F5D9032084F83C00002384F83D3038BDF7
:10035C0080F83D3001F034F8D9E75A6812F0010FFB
:10036C005BD0A269012A43D00022E169012941D066
:10037C0022F04002216A01293FD022F02002616A5A
:10038C0001293DD022F01002A16A01293BD022F0B4
:10039C000802E16A012939D022F00402196821F01F
:1003AC00FC010A431A60A368E268134322691343F1
:1003BC00626913436268013A21681343CB61226876
:1003CC00136823F001031360FFF7FCFE0546236856
:1003DC005A6812F0010F1CD0FFF7F4FE401B0A28DC
:1003EC00F5D9032084F83C00002384F83D30AEE7B7
:1003FC008022BAE742F04002BCE742F02002BEE79E
:10040C0042F01002C0E742F00802C2E742F00402D8
:10041C00C4E75B6813F0010F04D0042384F83C306C
:10042C00012094E700202064012384F83C308EE7FF
:10043C00012070470268936813F0806F08D19368AD
:10044C0013F0006F04D1936813F0805F00F09A8072
:10045C0090F83D30012B00F09A80F0B4012380F825
:10046C003D30936813F0806F05D1936813F0006FE3
:10047C0059D0012300E0002303F11801090154585D
:10048C0004F001045450016B8A68002A4DD10568B0
:10049C0003F118021201AC580E68C96841EA4651C2
:1004AC002143A950016B0A6902F00F020A6104682A
:1004BC0003F1180211016218546824F00F045460FF
:1004CC0002680A445168046B246921435160016B32
:1004DC00CC7D8A7D120442EA04624C7D42EA0422FD
:1004EC00097D04680A431D012C44C4F88821016B62
:1004FC00CC7E8A7E120442EA04624C7E42EA0422DA
:10050C000C7E016822432944C1F88C2190F83C20D0
:10051C00D2B2322A2ED0622A30D0222A12D0122203
:10052C0080F83C2011E00223A6E7066803F11804CA
:10053C00240135594F6842EAC702C9680A432A4365
:10054C003251AFE7422280F83C200022026480F84E
:10055C003D20046818331B01E15841F00101E150C2
:10056C0001684B6943F40F4343F001034B611046A0
:10057C00F0BC7047522280F83C20E6E7722280F8EB
:10058C003C20E2E7042380F83C3001207047022035
:10059C0070470A4699B990F83C30DBB2222B7ED0DA
:1005AC0090F83C30DBB2422B7BD090F83C30DBB285
:1005BC00622B78D090F83C30DBB2722B75D0012ACC
:1005CC0016D090F83D30012B77D010B4012380F871
:1005DC003D30002A44D190F83C30DBB2322B37D07E
:1005EC00522B39D0122B19D0222380F83C3018E032
:1005FC0090F83C30DBB2322B59D090F83C30DBB267
:10060C00522B56D090F83C30DBB2622B53D090F882
:10061C003C30DBB2722BD4D102207047422380F8DD
:10062C003C30002101640468636943F40F4343F0D8
:10063C000103636180F83D105ABB0268536943F0B3
:10064C000A035361002380F83D30184610BC7047F4
:10065C00622380F83C30E4E7722380F83C30E0E71A
:10066C0090F83C30DBB2222B0BD0422B0DD0122B4E
:10067C0003D0322380F83C30D3E7522380F83C304F
:10068C00CFE7622380F83C30CBE7722380F83C3014
:10069C00C7E70268536943F050035361D2E7022065
:1006AC0070470220704702207047022070470220DA
:1006BC007047022070470220704702207047704735
:1006CC0008B50268536923F00103536190F83C307C
:1006DC00DBB2122B0CD090F83C30DBB2522B14D086
:1006EC00722B16D0422B09D0012380F83C3008E045
:1006FC000268536923F40F435361ECE7222380F81B
:10070C003C30FFF7DCFF002008BD322380F83C3082
:10071C00F7E7622380F83C30F3E710B50C4600296C
:10072C0078D1436B016804F11B0212018A5802F064
:10073C0004029A60002A6FD1016804F11B021201B5
:10074C008A58520D1A60016804F11B021201895873
:10075C0001F00201D96001681144496801F00F01F0
:10076C0019611C6201680A445268C2F30722DA61FB
:10077C00016822011144D1F8B811197501681144AE
:10078C00D1F8B811090A597501681144D1F8B8119A
:10079C00090C997501681144D1F8B811090ED97575
:1007AC0001681144D1F8BC11197601681144D1F8D3
:1007BC00BC11090A597601681144D1F8BC11090C15
:1007CC00997601680A44D2F8BC21120EDA765CBB29
:1007DC0003682022DA600268536923F00A0353612C
:1007EC0090F83C30DBB2222B01D0322B04D10268C2
:1007FC00536923F40F43536174BB90F83C30DBB264
:10080C00622B21D0722B23D0422B16D0012380F8DF
:10081C003C3015E0836B85E7016804F11B02120183
:10082C008A58D2085A608EE7036820221A6102683F
:10083C00536923F050035361D2E7122380F83C3004
:10084C0000F091FE002010BD322380F83C30F7E719
:10085C00522380F83C30F3E790F83C30DBB2622B4B
:10086C000BD0722B0DD0522B03D0012380F83C30CF
:10087C00E6E7122380F83C30E2E7222380F83C3094
:10088C00DEE7422380F83C30DAE7000070B504461E
:10089C000268D168536911F0100F09D003F00803F6
:1008AC00002B00F0A6801023D3604FF4007500E0FD
:1008BC00002522681169536903F0400311F0100FF1
:1008CC0004D01BB145F480651023136123685A6969
:1008DC0012F0010F28D09E689968674A0A409968FF
:1008EC0021F06F4121F47E01090C09046348B043E7
:1008FC0005D06148824202D0614A914214D1996874
:10090C009A6802F400729B6803F0010311F0020F65
:10091C0002D10AB9002B6ED02046FFF7D1FE226817
:10092C009168584B0B4393602368DA685B6903F05A
:10093C00020312F0030F01D0002B5FD123681A6958
:10094C005B6903F0100312F0030F01D0002B5AD196
:10095C00236C2B432364236898695A6902F48072D0
:10096C00596901F4004110F0010F05D022B119B101
:10097C00226C42F00102226498695A6902F40072F6
:10098C00596901F4004110F0020F05D022B119B1E0
:10099C00226C42F00202226498695A6902F4806265
:1009AC00596901F4004110F0040F05D022B119B1BE
:1009BC00226C42F00402226498695A6902F40062C3
:1009CC00596901F4004110F0700F32D08AB381B331
:1009DC009A6902F07002302A2ED019D9502A30D0E0
:1009EC00602A33D0402A20D1226C42F0400222648B
:1009FC001BE000255DE745F4006590E700212046EB
:100A0C00FFF78BFE9AE701212046FFF786FE9FE752
:100A1C00102A06D0202A08D1226C42F0100222643F
:100A2C0003E0226C42F0080222649A6922F0700200
:100A3C009A61236C7BB970BD226C42F02002226457
:100A4C00F3E7226C42F080022264EEE7226C42F45F
:100A5C0080722264E9E7236804225A60012384F837
:100A6C003C302268536923F40F4323F05B0353613A
:100A7C00204600F069FDDEE70001000801000004DB
:100A8C000000011009050100074AD36823F4E06354
:100A9C001B041B0C000200F4E060184340F0BF6024
:100AAC0040F40030D060704700ED00E030B4174BDC
:100ABC00DB68C3F30223C3F10704042C28BF04240E
:100ACC001D1D062D18D9033B4FF0FF3505FA04F414
:100ADC0021EA0401994005FA03F322EA03031943BE
:100AEC0000280BDB0901C9B200F1604000F5614040
:100AFC0080F8001330BC70470023E5E700F00F00CE
:100B0C000901C9B2024B1954F4E700BF00ED00E033
:100B1C0014ED00E000F01F02400901239340024A4B
:100B2C0042F82030704700BF00E100E00138B0F11E
:100B3C00807F0AD2064B5860064AF02182F82310B7
:100B4C000020986007221A6070470120704700BF90
:100B5C0010E000E000ED00E0042805D0054A136821
:100B6C0023F0040313607047024A136843F0040334
:100B7C001360704710E000E0704708B5FFF7FCFF0A
:100B8C0008BD0000F0B482B000263546A1E0002C70
:100B9C0059D0012C00D1CE68FF2B68D88446FF2B8E
:100BAC0068D8AC00DCF800200F27A74022EA070227
:100BBC0006FA04F42243CCF800204A6812F0805F55
:100BCC0000F086805E4A946944F001049461926955
:100BDC0002F001020192019AAC08A71C594A52F882
:100BEC00272005F00307BF004FF00F0C0CFA07FC91
:100BFC0022EA0C0C544A904242D002F58062904298
:100C0C007FD002F5806290427DD002F580629042E6
:100C1C0034D0042235E04D4FBC4214D00BD94C4F8C
:100C2C00BC4210D007F58037BC420CD0A7F580171A
:100C3C00BC42B1D107E0A7F58017BC4203D007F541
:100C4C008037BC42A8D18C687CB1012C08D04261A1
:100C5C000826A1E7CE6808369EE7CE680C369BE7DF
:100C6C000261082698E7002696E7042694E700F12F
:100C7C00040C94E7A5F10804A40093E7032200E018
:100C8C000022BA4042EA0C0202342E4F47F82420CC
:100C9C004A6812F4803F38D02E4C22681A432260E6
:100CAC004A6812F4003F36D02A4C62681A436260DC
:100CBC004A6812F4801F34D0264CA2681A43A260F2
:100CCC004A6812F4001F32D0224CE2681343E360EE
:100CDC0001350F2D31D80122AA400B6813409A42DE
:100CEC00F6D14C68122CB8D095D8022CB2D07FF625
:100CFC004EAF032CB7D0112C7FF44EAFCE68043618
:100D0C004AE70122BDE70222BBE7124C226822EA25
:100D1C0003022260C4E70F4C626822EA030262609D
:100D2C00C6E70C4CA26822EA0302A260C8E7094C91
:100D3C00E26822EA0303E360CAE702B0F0BC704742
:100D4C00001002400000014000080140000021108A
:100D5C00000031100004014012B909040161704710
:100D6C0001617047C3685940C1607047704700000B
:100D7C0008B5054B5B69034200D108BD024B5861B5
:100D8C00FFF7F4FFF9E700BF0004014082B0084B05
:100D9C001B68084AA2FB03235B0A00FB03F00190CB
:100DAC0000BF019B5A1E0192002BF9D102B0704773
:100DBC0008000020D34D621070B582B00446036861
:100DCC0013F0010F2CD0AB4B5B6803F00C03042B1E
:100DDC001DD0A84B5B6803F00C03082B12D0636882
:100DEC00B3F5803F41D0002B55D103F1804303F57F
:100DFC0004331A6822F480321A601A6822F48022B2
:100E0C001A6037E09B4B5B6813F4803FE7D0994B3B
:100E1C001B6813F4003F03D06368002B00F0AE8115
:100E2C00236813F0020F76D0924B5B6813F00C0F13
:100E3C005FD0904B5B6803F00C03082B54D02369F4
:100E4C00002B00F08A808C4B01221A60FFF7BAF954
:100E5C000546884B1B6813F0020F75D1FFF7B2F9EA
:100E6C00401B0228F5D903208BE1824A136843F416
:100E7C0080331360636843B3FFF7A4F905467D4BD9
:100E8C001B6813F4003FCBD1FFF79CF9401B64287F
:100E9C00F5D9032075E1B3F5A02F09D0754B1A686D
:100EAC0022F480321A601A6822F480221A60E1E778
:100EBC0003F18043A3F53C331A6842F480221A6094
:100ECC001A6842F480321A60D4E7FFF77BF90546C2
:100EDC00684B1B6813F4003FA2D0FFF773F9401B5B
:100EEC006428F5D903204CE1624B5B6813F4803F16
:100EFC00A5D1604B1B6813F0020F04D02369012BA2
:100F0C0001D001203DE15B4A136823F0F8036169CD
:100F1C0043EAC1031360236813F0080F32D0A369AE
:100F2C00002B5BD0554B01221A60FFF74BF905469D
:100F3C00504B5B6A13F0020F21D1FFF743F9401BB2
:100F4C000228F5D903201CE14A4A136823F0F80360
:100F5C00616943EAC1031360DDE7474B00221A6065
:100F6C00FFF730F90546434B1B6813F0020FD2D044
:100F7C00FFF728F9401B0228F5D9032001E10120D5
:100F8C00FFF704FF236813F0040F00F09780394B30
:100F9C00DB6913F0805F33D1364BDA6942F0805253
:100FAC00DA61DB6903F080530193019B0125344B1B
:100FBC001B6813F4807F25D0E368012B36D0002BFF
:100FCC004CD103F1804303F504331A6A22F0010279
:100FDC001A621A6A22F004021A622CE0274B0022D1
:100FEC001A60FFF7EFF80546224B5B6A13F0020F0D
:100FFC00C8D0FFF7E7F8401B0228F5D90320C0E062
:10100C000025D4E71E4A136843F480731360FFF77E
:10101C00D9F806461A4B1B6813F4807FCCD1FFF726
:10102C00D1F8801B6428F5D90320AAE0114A136A71
:10103C0043F001031362E36873B3FFF7C3F806468A
:10104C000C4B1B6A13F0020F37D1FFF7BBF8801B58
:10105C0041F288339842F3D9032092E0052B11D04A
:10106C00044B1A6A22F001021A621A6A22F0040274
:10107C001A62E0E700100240000042428004424243
:10108C0000700040414B1A6A42F004021A621A6A5C
:10109C0042F001021A62CEE7FFF794F806463B4B8A
:1010AC001B6A13F0020F08D0FFF78CF8801B41F27B
:1010BC0088339842F3D9032063E0E5B9E369002B48
:1010CC005ED0324A526802F00C02082A5BD0022B26
:1010DC0017D02F4B00221A60FFF774F804462B4BE5
:1010EC001B6813F0007F47D0FFF76CF8001B022839
:1010FC00F5D9032045E0254AD36923F08053D36109
:10110C00DCE7234B00221A60FFF75CF805461F4B07
:10111C001B6813F0007F06D0FFF754F8401B022821
:10112C00F5D903202DE0236AB3F5803F1AD0174977
:10113C004B6823F47413226A606A024313434B60B6
:10114C00134B01221A60FFF73DF804460F4B1B6846
:10115C0013F0007F0ED1FFF735F8001B0228F5D9EC
:10116C0003200EE0094A536823F40033A1680B43B3
:10117C005360DCE7002004E0002002E0012000E0E6
:10118C00002002B070BD0120FBE700BF0010024040
:10119C006000424210B487B0164C94E80F000DF179
:1011AC00180C0CE90F00238AADF80430124B5B6865
:1011BC0003F00C02082A1AD1C3F38342624412F8DA
:1011CC00102C13F4803F05D10C4800FB02F007B043
:1011DC0010BC7047084B5B68C3F34043634413F87F
:1011EC00143C074800FB02F0B0FBF3F0EFE70448B7
:1011FC00EDE700BF001A00080010024000093D0096
:10120C0000127A00594B1B6803F007038B420CD277
:10121C00564A136823F007030B431360136803F05B
:10122C0007038B4201D00120704770B5036813F09F
:10123C00020F06D04E4A536823F0F0038468234310
:10124C0053600C460546036813F0010F52D04368F7
:10125C00012B23D0022B28D0454A126812F0020F22
:10126C0000F0828042494A6822F0030213434B602B
:10127C00FEF7A8FF06466B68012B1DD0022B2AD067
:10128C003B4B5B6813F00C0F34D0FEF79BFF801BBD
:10129C0041F288339842F3D9032064E0344A12684F
:1012AC0012F4003FDED101205DE0314A126812F0E9
:1012BC00007FD7D1012056E02D4B5B6803F00C0367
:1012CC00042B17D0FEF77EFF801B41F28833984227
:1012DC00F2D9032047E0264B5B6803F00C03082B84
:1012EC0008D0FEF76FFF801B41F288339842F2D989
:1012FC00032038E01D4B1B6803F00703A3420CD9F5
:10130C001A4A136823F0070323431360136803F08E
:10131C000703A34201D0012025E02B6813F0040F32
:10132C0006D0134A536823F4E063E9680B43536017
:10133C002B6813F0080F07D00D4A536823F4605341
:10134C00296943EAC1035360FFF724FF084B5B682C
:10135C00C3F30313074AD35CD840074B1860002033
:10136C00FEF7EEFE002070BD0120FCE700200240DD
:10137C0000100240141A000808000020014B1868E5
:10138C00704700BF0800002008B50B480B4B0360EA
:10139C00E123436000238360C3604FF4A022026109
:1013AC00436183610122C261036243628362C3624F
:1013BC00FEF7A5FF08BD00BF7800002000640040C8
:1013CC000268214B9A4200D0704730B587B003F5C4
:1013DC00D633DA6942F00072DA61DB6903F000732C
:1013EC000193019B4FF480730293002403940494A3
:1013FC00164D02A92846FFF7C5FB4FF40073029364
:10140C00022303930323059302A92846FFF7BAFB93
:10141C000F4A536823F4C04343F0E06343F4804322
:10142C005360224621461320FFF740FB1320FFF7A1
:10143C0071FB224621461420FFF738FB1420FFF7DE
:10144C0069FB07B030BD00BF00640040000C0140D8
:10145C000000014000B58BB00023059306930122D8
:10146C0007920093019302930393049308920E2323
:10147C00099369460548FEF7BFFE10B90BB05DF83D
:10148C0004FBA521024800F043F9F7E7780000209F
:10149C002C1A000808B500210448FFF77AF800B9A7
:1014AC0008BDC121024800F033F9F9E778000020AB
:1014BC002C1A000808B50C4B1B6B1960002304E0B8
:1014CC00C15C1A4411750133DBB2074A126B116906
:1014DC008B42F5D30448FEF7ADFF00B908BDD3210C
:1014EC00024800F015F9F9E7780000202C1A0008E2
:1014FC0040F2213303600023436083600361C361C6
:10150C0004E0C218002111750133DBB2072BF8D9A6
:10151C007047000010B50A4C2046FFF7E9FF094B55
:10152C0004F124021A635C634FF440736362012379
:10153C00A36200232363E3620823636310BD00BF2F
:10154C00280000207800002038B5044603681025D8
:10155C00DD600021FFF71DF823681D610121204685
:10156C00FFF717F838BD10B504460021FFF711F846
:10157C0020B12268536943F00203536110BD00008F
:10158C002DE9F04389B05C4B9A6942F010029A61E4
:10159C009A6902F010020092009A9A6942F02002B5
:1015AC009A619A6902F020020192019A9A6942F0BA
:1015BC0004029A619A6902F004020292029A9A69F0
:1015CC0042F008029A619B6903F008030393039BA2
:1015DC004A4E00224FF460413046FFF7BDFB484DA8
:1015EC0000224FF410612846FFF7B6FB4FF460431E
:1015FC0004934FF00109CDF81490002406940227AF
:10160C00079704A93046FFF7BDFA40F27F630493B5
:10161C004FF00308CDF8148004A92846FFF7B2FA5E
:10162C0080230493374E0596069404A92846FFF7A9
:10163C00A9FA41F20343049305960694324E04A989
:10164C003046FFF79FFA042304930594069404A9EB
:10165C003046FFF797FA4FF40C630493CDF81480DF
:10166C0004A93046FFF78EFA4EF23803049305971F
:10167C00CDF81C8004A93046FFF784FA4FF41063B0
:10168C000493CDF814900694079704A92846FFF705
:10169C0079FA4FF4104304930594069404A9284650
:1016AC00FFF770FA194A536843F0E06343EA090301
:1016BC005360224621460620FFF7F8F90620FFF773
:1016CC0029FA224621460720FFF7F0F90720FFF7F9
:1016DC0021FA224621461720FFF7E8F91720FFF7D9
:1016EC0019FA224621462820FFF7E0F92820FFF7B7
:1016FC0011FA09B0BDE8F08300100240001001405F
:10170C000008014000001110000C014000000140D5
:10171C0008B54FF400510448FFF724FB4FF49670C2
:10172C00FEF756FDF5E700BF0010014000B591B083
:10173C00012206924FF480330793002108910A92FC
:10174C0002220D920E934FF4E0130F9306A8FFF7AD
:10175C0033FB08BB0F230193022102910023039357
:10176C004FF480620492059301A8FFF74BFDB8B9C2
:10177C00FFF704FE0C4BA3FB00308009FFF7D6F9F2
:10178C000420FFF7E9F9002211464FF0FF30FFF774
:10179C008DF911B05DF804FB94210448FFF7B8FFF4
:1017AC00A2210248FFF7B4FFD34D62103C1A000887
:1017BC0008B5FEF7E9FCFFF7B9FFFFF7E1FEFFF70D
:1017CC00E3FDFFF747FEFFF7A5FEFFF763FE054BB2
:1017DC00586B016801311430FFF76CFE0A20FEF7DC
:1017EC00F7FCF4E77800002000B583B0244B9A692D
:1017FC0042F001029A619A6902F001020092009A89
:10180C00DA6942F08052DA61DB6903F080530193AC
:10181C00019B0320FFF738F9002211466FF00B00F3
:10182C00FFF744F9002211466FF00A00FFF73EF96A
:10183C00002211466FF00900FFF738F9002211461B
:10184C006FF00400FFF732F9002211466FF003002D
:10185C00FFF72CF9002211466FF00100FFF726F973
:10186C00002211464FF0FF30FFF720F9054A53686C
:10187C0023F0E06343F00073536003B05DF804FBA6
:10188C0000100240000001407047FEE7FEE7FEE753
:10189C00FEE770477047704708B5FEF787FCFFF707
:1018AC006CF908BD08B50120FFF762FA08BD08B550
:1018BC000220FFF75DFA08BD08B50248FEF7E6FF07
:1018CC0008BD00BF7800002008B50348FEF7DEFF16
:1018DC00FFF7E0FD08BD00BF7800002008B58020B0
:1018EC00FFF746FA08BD08B54FF48060FFF740FAE1
:1018FC004FF48050FFF73CFA08BD00000F4B1A68FC
:10190C0042F001021A6059680D4A0A405A601A687E
:10191C0022F0847222F480321A601A6822F4802237
:10192C001A605A6822F4FE025A604FF41F029A6041
:10193C00044B4FF000629A60704700BF00100240E9
:10194C000000FFF800ED00E0002103E00B4B5B58BA
:10195C00435004310A480B4B42189A42F6D30A4AB8
:10196C0002E0002342F8043B084B9A42F9D3FFF7FC
:10197C00C5FF00F00FF8FFF71BFF7047541A000863
:10198C00000000200C0000200C000020C4000020EF
:10199C00FEE7000070B500250C4E0D4CA41BA410E6
:1019AC00A54209D100F01AF800250A4E0A4CA41BD6
:1019BC00A410A54205D170BD56F8253098470135C5
:1019CC00EEE756F8253098470135F2E74C1A000837
:1019DC004C1A00084C1A0008501A0008F8B500BF41
:1019EC00F8BC08BC9E467047F8B500BFF8BC08BCF4
:0419FC009E4670474C
:101A000002030405060708090A0B0C0D0E0F10103F
:101A100001020000000000000000000001020304B9
:101A20000607080900000000010203042E2E2F53B0
:101A300072632F63616E2E63000000002E2E2F5301
:0C1A400072632F6D61696E2E6300000060
:041A4C00310100085C
:041A50000D0100087C
:0C1A5400010000001000000000A24A0485
:040000050800195581
:00000001FF
